{
  "_format": "hh-sol-artifact-1",
  "contractName": "NetworkState",
  "sourceName": "contracts/NetworkState.sol",
  "abi": [
    {
      "inputs": [
        {
          "internalType": "address",
          "name": "_tokenAddress",
          "type": "address"
        }
      ],
      "stateMutability": "nonpayable",
      "type": "constructor"
    },
    {
      "inputs": [],
      "name": "ReentrancyGuardReentrantCall",
      "type": "error"
    },
    {
      "anonymous": false,
      "inputs": [
        {
          "indexed": true,
          "internalType": "address",
          "name": "agent",
          "type": "address"
        },
        {
          "indexed": false,
          "internalType": "uint256",
          "name": "amount",
          "type": "uint256"
        }
      ],
      "name": "Staked",
      "type": "event"
    },
    {
      "anonymous": false,
      "inputs": [
        {
          "indexed": true,
          "internalType": "uint256",
          "name": "requestId",
          "type": "uint256"
        },
        {
          "indexed": true,
          "internalType": "address",
          "name": "agent",
          "type": "address"
        }
      ],
      "name": "TaskAccepted",
      "type": "event"
    },
    {
      "anonymous": false,
      "inputs": [
        {
          "indexed": true,
          "internalType": "uint256",
          "name": "requestId",
          "type": "uint256"
        },
        {
          "indexed": true,
          "internalType": "address",
          "name": "agent",
          "type": "address"
        }
      ],
      "name": "TaskRejected",
      "type": "event"
    },
    {
      "anonymous": false,
      "inputs": [
        {
          "indexed": true,
          "internalType": "uint256",
          "name": "requestId",
          "type": "uint256"
        },
        {
          "indexed": true,
          "internalType": "address",
          "name": "user",
          "type": "address"
        },
        {
          "indexed": true,
          "internalType": "address",
          "name": "agent",
          "type": "address"
        },
        {
          "indexed": false,
          "internalType": "uint256",
          "name": "amount",
          "type": "uint256"
        }
      ],
      "name": "TaskRequested",
      "type": "event"
    },
    {
      "anonymous": false,
      "inputs": [
        {
          "indexed": true,
          "internalType": "uint256",
          "name": "requestId",
          "type": "uint256"
        },
        {
          "indexed": true,
          "internalType": "address",
          "name": "user",
          "type": "address"
        },
        {
          "indexed": false,
          "internalType": "uint256",
          "name": "feedbackScore",
          "type": "uint256"
        }
      ],
      "name": "TaskReviewed",
      "type": "event"
    },
    {
      "anonymous": false,
      "inputs": [
        {
          "indexed": true,
          "internalType": "address",
          "name": "agent",
          "type": "address"
        },
        {
          "indexed": false,
          "internalType": "uint256",
          "name": "amount",
          "type": "uint256"
        }
      ],
      "name": "Unstaked",
      "type": "event"
    },
    {
      "inputs": [],
      "name": "STAKE_AMOUNT",
      "outputs": [
        {
          "internalType": "uint256",
          "name": "",
          "type": "uint256"
        }
      ],
      "stateMutability": "view",
      "type": "function"
    },
    {
      "inputs": [
        {
          "internalType": "uint256",
          "name": "_id",
          "type": "uint256"
        }
      ],
      "name": "acceptTask",
      "outputs": [],
      "stateMutability": "nonpayable",
      "type": "function"
    },
    {
      "inputs": [
        {
          "internalType": "address",
          "name": "",
          "type": "address"
        }
      ],
      "name": "agents",
      "outputs": [
        {
          "internalType": "uint64",
          "name": "socialReputation",
          "type": "uint64"
        },
        {
          "internalType": "uint64",
          "name": "feedbackQuality",
          "type": "uint64"
        },
        {
          "internalType": "uint64",
          "name": "tasksCompleted",
          "type": "uint64"
        },
        {
          "internalType": "uint64",
          "name": "feedbacksCompleted",
          "type": "uint64"
        },
        {
          "internalType": "uint256",
          "name": "totalSpent",
          "type": "uint256"
        },
        {
          "internalType": "uint256",
          "name": "totalEarned",
          "type": "uint256"
        },
        {
          "internalType": "bool",
          "name": "isActive",
          "type": "bool"
        }
      ],
      "stateMutability": "view",
      "type": "function"
    },
    {
      "inputs": [
        {
          "internalType": "address",
          "name": "_agent",
          "type": "address"
        },
        {
          "internalType": "uint256",
          "name": "_tipAmount",
          "type": "uint256"
        }
      ],
      "name": "payAgent",
      "outputs": [],
      "stateMutability": "nonpayable",
      "type": "function"
    },
    {
      "inputs": [
        {
          "internalType": "uint256",
          "name": "_id",
          "type": "uint256"
        }
      ],
      "name": "rejectTask",
      "outputs": [],
      "stateMutability": "nonpayable",
      "type": "function"
    },
    {
      "inputs": [],
      "name": "requestCounter",
      "outputs": [
        {
          "internalType": "uint256",
          "name": "",
          "type": "uint256"
        }
      ],
      "stateMutability": "view",
      "type": "function"
    },
    {
      "inputs": [
        {
          "internalType": "uint256",
          "name": "",
          "type": "uint256"
        }
      ],
      "name": "requests",
      "outputs": [
        {
          "internalType": "uint256",
          "name": "id",
          "type": "uint256"
        },
        {
          "internalType": "uint256",
          "name": "tipAmount",
          "type": "uint256"
        },
        {
          "internalType": "uint64",
          "name": "feedback",
          "type": "uint64"
        },
        {
          "internalType": "address",
          "name": "user",
          "type": "address"
        },
        {
          "internalType": "address",
          "name": "agent",
          "type": "address"
        },
        {
          "internalType": "bool",
          "name": "rejected",
          "type": "bool"
        },
        {
          "internalType": "bool",
          "name": "completed",
          "type": "bool"
        }
      ],
      "stateMutability": "view",
      "type": "function"
    },
    {
      "inputs": [
        {
          "internalType": "uint256",
          "name": "_id",
          "type": "uint256"
        },
        {
          "internalType": "uint64",
          "name": "_feedbackScore",
          "type": "uint64"
        }
      ],
      "name": "reviewTask",
      "outputs": [],
      "stateMutability": "nonpayable",
      "type": "function"
    },
    {
      "inputs": [],
      "name": "stake",
      "outputs": [],
      "stateMutability": "nonpayable",
      "type": "function"
    },
    {
      "inputs": [
        {
          "internalType": "address",
          "name": "",
          "type": "address"
        }
      ],
      "name": "stakes",
      "outputs": [
        {
          "internalType": "uint256",
          "name": "",
          "type": "uint256"
        }
      ],
      "stateMutability": "view",
      "type": "function"
    },
    {
      "inputs": [],
      "name": "token",
      "outputs": [
        {
          "internalType": "contract IERC20",
          "name": "",
          "type": "address"
        }
      ],
      "stateMutability": "view",
      "type": "function"
    },
    {
      "inputs": [],
      "name": "unstake",
      "outputs": [],
      "stateMutability": "nonpayable",
      "type": "function"
    },
    {
      "inputs": [
        {
          "internalType": "address",
          "name": "",
          "type": "address"
        }
      ],
      "name": "users",
      "outputs": [
        {
          "internalType": "uint64",
          "name": "feedbackQuality",
          "type": "uint64"
        },
        {
          "internalType": "uint64",
          "name": "feedbacksCompleted",
          "type": "uint64"
        },
        {
          "internalType": "uint256",
          "name": "totalSpent",
          "type": "uint256"
        }
      ],
      "stateMutability": "view",
      "type": "function"
    }
  ],
  "bytecode": "0x60a060405234801561001057600080fd5b5060405161281c38038061281c833981810160405281019061003291906100d7565b60016000819055508073ffffffffffffffffffffffffffffffffffffffff1660808173ffffffffffffffffffffffffffffffffffffffff168152505050610104565b600080fd5b600073ffffffffffffffffffffffffffffffffffffffff82169050919050565b60006100a482610079565b9050919050565b6100b481610099565b81146100bf57600080fd5b50565b6000815190506100d1816100ab565b92915050565b6000602082840312156100ed576100ec610074565b5b60006100fb848285016100c2565b91505092915050565b6080516126da610142600039600081816104470152818161079701528181610a080152818161120d01528181611735015261189501526126da6000f3fe608060405234801561001057600080fd5b50600436106100cf5760003560e01c806381d12c581161008c578063e76b9b3f11610066578063e76b9b3f146101f2578063faf5625f1461020e578063fc0c546a1461022c578063fd66091e1461024a576100cf565b806381d12c581461016c578063973a814e146101a2578063a87430ba146101c0576100cf565b806316934fc4146100d45780631bf6912d146101045780632def6620146101205780633a4b66f11461012a57806368a0590e146101345780637d81b40b14610150575b600080fd5b6100ee60048036038101906100e99190611a09565b610280565b6040516100fb9190611a4f565b60405180910390f35b61011e60048036038101906101199190611a96565b610298565b005b6101286106fe565b005b61013261097c565b005b61014e60048036038101906101499190611b03565b610bfa565b005b61016a60048036038101906101659190611a96565b6110ae565b005b61018660048036038101906101819190611a96565b6113a1565b6040516101999796959493929190611b7c565b60405180910390f35b6101aa611451565b6040516101b79190611a4f565b60405180910390f35b6101da60048036038101906101d59190611a09565b611457565b6040516101e993929190611beb565b60405180910390f35b61020c60048036038101906102079190611c22565b6114a9565b005b610216611885565b6040516102239190611a4f565b60405180910390f35b610234611893565b6040516102419190611cc1565b60405180910390f35b610264600480360381019061025f9190611a09565b6118b7565b6040516102779796959493929190611cdc565b60405180910390f35b60056020528060005260406000206000915090505481565b600260003373ffffffffffffffffffffffffffffffffffffffff1673ffffffffffffffffffffffffffffffffffffffff16815260200190815260200160002060030160009054906101000a900460ff16610327576040517f08c379a000000000000000000000000000000000000000000000000000000000815260040161031e90611da8565b60405180910390fd5b61032f611956565b60006004600083815260200190815260200160002090503373ffffffffffffffffffffffffffffffffffffffff168160030160009054906101000a900473ffffffffffffffffffffffffffffffffffffffff1673ffffffffffffffffffffffffffffffffffffffff16146103d8576040517f08c379a00000000000000000000000000000000000000000000000000000000081526004016103cf90611e14565b60405180910390fd5b8060030160149054906101000a900460ff1615801561040657508060030160159054906101000a900460ff16155b610445576040517f08c379a000000000000000000000000000000000000000000000000000000000815260040161043c90611e80565b60405180910390fd5b7f000000000000000000000000000000000000000000000000000000000000000073ffffffffffffffffffffffffffffffffffffffff1663a9059cbb3383600101546040518363ffffffff1660e01b81526004016104a4929190611ea0565b6020604051808303816000875af11580156104c3573d6000803e3d6000fd5b505050506040513d601f19601f820116820180604052508101906104e79190611ef5565b610526576040517f08c379a000000000000000000000000000000000000000000000000000000000815260040161051d90611f6e565b60405180910390fd5b8060010154600260003373ffffffffffffffffffffffffffffffffffffffff1673ffffffffffffffffffffffffffffffffffffffff168152602001908152602001600020600201600082825461057c9190611fbd565b92505081905550600260003373ffffffffffffffffffffffffffffffffffffffff1673ffffffffffffffffffffffffffffffffffffffff168152602001908152602001600020600001601081819054906101000a900467ffffffffffffffff16809291906105e990611ff1565b91906101000a81548167ffffffffffffffff021916908367ffffffffffffffff160217905550508060010154600360008360020160089054906101000a900473ffffffffffffffffffffffffffffffffffffffff1673ffffffffffffffffffffffffffffffffffffffff1673ffffffffffffffffffffffffffffffffffffffff168152602001908152602001600020600101600082825461068a9190611fbd565b9250508190555060018160030160156101000a81548160ff0219169083151502179055503373ffffffffffffffffffffffffffffffffffffffff16827fc8717b61398fb9d7cacf49fe1e296b2f10e9711226b532842b6ffd642cb6a2c660405160405180910390a3506106fb61199c565b50565b610706611956565b600260003373ffffffffffffffffffffffffffffffffffffffff1673ffffffffffffffffffffffffffffffffffffffff16815260200190815260200160002060030160009054906101000a900460ff16610795576040517f08c379a000000000000000000000000000000000000000000000000000000000815260040161078c90611da8565b60405180910390fd5b7f000000000000000000000000000000000000000000000000000000000000000073ffffffffffffffffffffffffffffffffffffffff1663a9059cbb3369021e19e0c9bab24000006040518363ffffffff1660e01b81526004016107fa929190611ea0565b6020604051808303816000875af1158015610819573d6000803e3d6000fd5b505050506040513d601f19601f8201168201806040525081019061083d9190611ef5565b61087c576040517f08c379a00000000000000000000000000000000000000000000000000000000081526004016108739061206d565b60405180910390fd5b6000600260003373ffffffffffffffffffffffffffffffffffffffff1673ffffffffffffffffffffffffffffffffffffffff16815260200190815260200160002060030160006101000a81548160ff021916908315150217905550600560003373ffffffffffffffffffffffffffffffffffffffff1673ffffffffffffffffffffffffffffffffffffffff168152602001908152602001600020600090553373ffffffffffffffffffffffffffffffffffffffff167f0f5bb82176feb1b5e747e28471aa92156a04d9f3ab9f45f28e2d704232b93f7569021e19e0c9bab240000060405161096a9190611a4f565b60405180910390a261097a61199c565b565b610984611956565b6000600560003373ffffffffffffffffffffffffffffffffffffffff1673ffffffffffffffffffffffffffffffffffffffff1681526020019081526020016000205414610a06576040517f08c379a00000000000000000000000000000000000000000000000000000000081526004016109fd906120d9565b60405180910390fd5b7f000000000000000000000000000000000000000000000000000000000000000073ffffffffffffffffffffffffffffffffffffffff166323b872dd333069021e19e0c9bab24000006040518463ffffffff1660e01b8152600401610a6d939291906120f9565b6020604051808303816000875af1158015610a8c573d6000803e3d6000fd5b505050506040513d601f19601f82011682018060405250810190610ab09190611ef5565b610aef576040517f08c379a0000000000000000000000000000000000000000000000000000000008152600401610ae69061217c565b60405180910390fd5b6001600260003373ffffffffffffffffffffffffffffffffffffffff1673ffffffffffffffffffffffffffffffffffffffff16815260200190815260200160002060030160006101000a81548160ff02191690831515021790555069021e19e0c9bab2400000600560003373ffffffffffffffffffffffffffffffffffffffff1673ffffffffffffffffffffffffffffffffffffffff168152602001908152602001600020819055503373ffffffffffffffffffffffffffffffffffffffff167f9e71bc8eea02a63969f509818f2dafb9254532904319f9dbda79b67bd34a5f3d69021e19e0c9bab2400000604051610be89190611a4f565b60405180910390a2610bf861199c565b565b813373ffffffffffffffffffffffffffffffffffffffff166004600083815260200190815260200160002060020160089054906101000a900473ffffffffffffffffffffffffffffffffffffffff1673ffffffffffffffffffffffffffffffffffffffff1614610c9f576040517f08c379a0000000000000000000000000000000000000000000000000000000008152600401610c96906121e8565b60405180910390fd5b610ca7611956565b60006004600085815260200190815260200160002090508060030160159054906101000a900460ff16610d0f576040517f08c379a0000000000000000000000000000000000000000000000000000000008152600401610d0690612254565b60405180910390fd5b60008160020160009054906101000a900467ffffffffffffffff1667ffffffffffffffff1614610d74576040517f08c379a0000000000000000000000000000000000000000000000000000000008152600401610d6b906122c0565b60405180910390fd5b60008367ffffffffffffffff1610158015610d9a5750600a8367ffffffffffffffff1611155b610dd9576040517f08c379a0000000000000000000000000000000000000000000000000000000008152600401610dd09061232c565b60405180910390fd5b600260008260030160009054906101000a900473ffffffffffffffffffffffffffffffffffffffff1673ffffffffffffffffffffffffffffffffffffffff1673ffffffffffffffffffffffffffffffffffffffff168152602001908152602001600020600001601881819054906101000a900467ffffffffffffffff1680929190610e6390611ff1565b91906101000a81548167ffffffffffffffff021916908367ffffffffffffffff1602179055505082600260008360030160009054906101000a900473ffffffffffffffffffffffffffffffffffffffff1673ffffffffffffffffffffffffffffffffffffffff1673ffffffffffffffffffffffffffffffffffffffff16815260200190815260200160002060000160088282829054906101000a900467ffffffffffffffff16610f13919061234c565b92506101000a81548167ffffffffffffffff021916908367ffffffffffffffff160217905550600360003373ffffffffffffffffffffffffffffffffffffffff1673ffffffffffffffffffffffffffffffffffffffff168152602001908152602001600020600001600881819054906101000a900467ffffffffffffffff1680929190610f9f90611ff1565b91906101000a81548167ffffffffffffffff021916908367ffffffffffffffff1602179055505082600360003373ffffffffffffffffffffffffffffffffffffffff1673ffffffffffffffffffffffffffffffffffffffff16815260200190815260200160002060000160008282829054906101000a900467ffffffffffffffff1661102b919061234c565b92506101000a81548167ffffffffffffffff021916908367ffffffffffffffff1602179055503373ffffffffffffffffffffffffffffffffffffffff16847f4c3ed193d646b6745cb226f4d24a3d53ede9d93a594fb7c93dec8437fda76a6b8560405161109891906123b9565b60405180910390a3506110a961199c565b505050565b6110b6611956565b60006004600083815260200190815260200160002090503373ffffffffffffffffffffffffffffffffffffffff168160030160009054906101000a900473ffffffffffffffffffffffffffffffffffffffff1673ffffffffffffffffffffffffffffffffffffffff16148061117a57503373ffffffffffffffffffffffffffffffffffffffff168160020160089054906101000a900473ffffffffffffffffffffffffffffffffffffffff1673ffffffffffffffffffffffffffffffffffffffff16145b6111b9576040517f08c379a00000000000000000000000000000000000000000000000000000000081526004016111b090612420565b60405180910390fd5b8060030160159054906101000a900460ff161561120b576040517f08c379a00000000000000000000000000000000000000000000000000000000081526004016112029061248c565b60405180910390fd5b7f000000000000000000000000000000000000000000000000000000000000000073ffffffffffffffffffffffffffffffffffffffff1663a9059cbb8260020160089054906101000a900473ffffffffffffffffffffffffffffffffffffffff1683600101546040518363ffffffff1660e01b815260040161128e929190611ea0565b6020604051808303816000875af11580156112ad573d6000803e3d6000fd5b505050506040513d601f19601f820116820180604052508101906112d19190611ef5565b611310576040517f08c379a0000000000000000000000000000000000000000000000000000000008152600401611307906124f8565b60405180910390fd5b60018160030160146101000a81548160ff0219169083151502179055508060030160009054906101000a900473ffffffffffffffffffffffffffffffffffffffff1673ffffffffffffffffffffffffffffffffffffffff16827fae1c93c6393c5abab2eaef81c691beeb381335c7913caabf8feaa0b24bd03cc060405160405180910390a35061139e61199c565b50565b60046020528060005260406000206000915090508060000154908060010154908060020160009054906101000a900467ffffffffffffffff16908060020160089054906101000a900473ffffffffffffffffffffffffffffffffffffffff16908060030160009054906101000a900473ffffffffffffffffffffffffffffffffffffffff16908060030160149054906101000a900460ff16908060030160159054906101000a900460ff16905087565b60015481565b60036020528060005260406000206000915090508060000160009054906101000a900467ffffffffffffffff16908060000160089054906101000a900467ffffffffffffffff16908060010154905083565b6114b1611956565b600260008373ffffffffffffffffffffffffffffffffffffffff1673ffffffffffffffffffffffffffffffffffffffff16815260200190815260200160002060030160009054906101000a900460ff16611540576040517f08c379a000000000000000000000000000000000000000000000000000000000815260040161153790612564565b60405180910390fd5b60008111611583576040517f08c379a000000000000000000000000000000000000000000000000000000000815260040161157a906125d0565b60405180910390fd5b6000600160008154611594906125f0565b91905081905590506040518060e00160405280828152602001838152602001600067ffffffffffffffff1681526020013373ffffffffffffffffffffffffffffffffffffffff1681526020018473ffffffffffffffffffffffffffffffffffffffff1681526020016000151581526020016000151581525060046000838152602001908152602001600020600082015181600001556020820151816001015560408201518160020160006101000a81548167ffffffffffffffff021916908367ffffffffffffffff16021790555060608201518160020160086101000a81548173ffffffffffffffffffffffffffffffffffffffff021916908373ffffffffffffffffffffffffffffffffffffffff16021790555060808201518160030160006101000a81548173ffffffffffffffffffffffffffffffffffffffff021916908373ffffffffffffffffffffffffffffffffffffffff16021790555060a08201518160030160146101000a81548160ff02191690831515021790555060c08201518160030160156101000a81548160ff0219169083151502179055509050507f000000000000000000000000000000000000000000000000000000000000000073ffffffffffffffffffffffffffffffffffffffff166323b872dd3330856040518463ffffffff1660e01b8152600401611790939291906120f9565b6020604051808303816000875af11580156117af573d6000803e3d6000fd5b505050506040513d601f19601f820116820180604052508101906117d39190611ef5565b611812576040517f08c379a000000000000000000000000000000000000000000000000000000000815260040161180990612684565b60405180910390fd5b8273ffffffffffffffffffffffffffffffffffffffff163373ffffffffffffffffffffffffffffffffffffffff16827f6e5c922dc601d2627876c223ed8f3ba120b626602276ab6858ab32b9b91c0966856040516118709190611a4f565b60405180910390a45061188161199c565b5050565b69021e19e0c9bab240000081565b7f000000000000000000000000000000000000000000000000000000000000000081565b60026020528060005260406000206000915090508060000160009054906101000a900467ffffffffffffffff16908060000160089054906101000a900467ffffffffffffffff16908060000160109054906101000a900467ffffffffffffffff16908060000160189054906101000a900467ffffffffffffffff16908060010154908060020154908060030160009054906101000a900460ff16905087565b600260005403611992576040517f3ee5aeb500000000000000000000000000000000000000000000000000000000815260040160405180910390fd5b6002600081905550565b6001600081905550565b600080fd5b600073ffffffffffffffffffffffffffffffffffffffff82169050919050565b60006119d6826119ab565b9050919050565b6119e6816119cb565b81146119f157600080fd5b50565b600081359050611a03816119dd565b92915050565b600060208284031215611a1f57611a1e6119a6565b5b6000611a2d848285016119f4565b91505092915050565b6000819050919050565b611a4981611a36565b82525050565b6000602082019050611a646000830184611a40565b92915050565b611a7381611a36565b8114611a7e57600080fd5b50565b600081359050611a9081611a6a565b92915050565b600060208284031215611aac57611aab6119a6565b5b6000611aba84828501611a81565b91505092915050565b600067ffffffffffffffff82169050919050565b611ae081611ac3565b8114611aeb57600080fd5b50565b600081359050611afd81611ad7565b92915050565b60008060408385031215611b1a57611b196119a6565b5b6000611b2885828601611a81565b9250506020611b3985828601611aee565b9150509250929050565b611b4c81611ac3565b82525050565b611b5b816119cb565b82525050565b60008115159050919050565b611b7681611b61565b82525050565b600060e082019050611b91600083018a611a40565b611b9e6020830189611a40565b611bab6040830188611b43565b611bb86060830187611b52565b611bc56080830186611b52565b611bd260a0830185611b6d565b611bdf60c0830184611b6d565b98975050505050505050565b6000606082019050611c006000830186611b43565b611c0d6020830185611b43565b611c1a6040830184611a40565b949350505050565b60008060408385031215611c3957611c386119a6565b5b6000611c47858286016119f4565b9250506020611c5885828601611a81565b9150509250929050565b6000819050919050565b6000611c87611c82611c7d846119ab565b611c62565b6119ab565b9050919050565b6000611c9982611c6c565b9050919050565b6000611cab82611c8e565b9050919050565b611cbb81611ca0565b82525050565b6000602082019050611cd66000830184611cb2565b92915050565b600060e082019050611cf1600083018a611b43565b611cfe6020830189611b43565b611d0b6040830188611b43565b611d186060830187611b43565b611d256080830186611a40565b611d3260a0830185611a40565b611d3f60c0830184611b6d565b98975050505050505050565b600082825260208201905092915050565b7f4e6f7420616e20616374697665206167656e7400000000000000000000000000600082015250565b6000611d92601383611d4b565b9150611d9d82611d5c565b602082019050919050565b60006020820190508181036000830152611dc181611d85565b9050919050565b7f4e6f7420796f7572207461736b00000000000000000000000000000000000000600082015250565b6000611dfe600d83611d4b565b9150611e0982611dc8565b602082019050919050565b60006020820190508181036000830152611e2d81611df1565b9050919050565b7f5461736b20616c72656164792068616e646c6564000000000000000000000000600082015250565b6000611e6a601483611d4b565b9150611e7582611e34565b602082019050919050565b60006020820190508181036000830152611e9981611e5d565b9050919050565b6000604082019050611eb56000830185611b52565b611ec26020830184611a40565b9392505050565b611ed281611b61565b8114611edd57600080fd5b50565b600081519050611eef81611ec9565b92915050565b600060208284031215611f0b57611f0a6119a6565b5b6000611f1984828501611ee0565b91505092915050565b7f5472616e73666572206661696c65640000000000000000000000000000000000600082015250565b6000611f58600f83611d4b565b9150611f6382611f22565b602082019050919050565b60006020820190508181036000830152611f8781611f4b565b9050919050565b7f4e487b7100000000000000000000000000000000000000000000000000000000600052601160045260246000fd5b6000611fc882611a36565b9150611fd383611a36565b9250828201905080821115611feb57611fea611f8e565b5b92915050565b6000611ffc82611ac3565b915067ffffffffffffffff820361201657612015611f8e565b5b600182019050919050565b7f556e7374616b65206661696c6564000000000000000000000000000000000000600082015250565b6000612057600e83611d4b565b915061206282612021565b602082019050919050565b600060208201905081810360008301526120868161204a565b9050919050565b7f416c7265616479207374616b6564000000000000000000000000000000000000600082015250565b60006120c3600e83611d4b565b91506120ce8261208d565b602082019050919050565b600060208201905081810360008301526120f2816120b6565b9050919050565b600060608201905061210e6000830186611b52565b61211b6020830185611b52565b6121286040830184611a40565b949350505050565b7f5374616b65206661696c65640000000000000000000000000000000000000000600082015250565b6000612166600c83611d4b565b915061217182612130565b602082019050919050565b6000602082019050818103600083015261219581612159565b9050919050565b7f4e6f742072657175657374206f776e6572000000000000000000000000000000600082015250565b60006121d2601183611d4b565b91506121dd8261219c565b602082019050919050565b60006020820190508181036000830152612201816121c5565b9050919050565b7f5461736b206e6f7420636f6d706c657465640000000000000000000000000000600082015250565b600061223e601283611d4b565b915061224982612208565b602082019050919050565b6000602082019050818103600083015261226d81612231565b9050919050565b7f5461736b20616c72656164792072657669657765640000000000000000000000600082015250565b60006122aa601583611d4b565b91506122b582612274565b602082019050919050565b600060208201905081810360008301526122d98161229d565b9050919050565b7f496e76616c696420666565646261636b2073636f726500000000000000000000600082015250565b6000612316601683611d4b565b9150612321826122e0565b602082019050919050565b6000602082019050818103600083015261234581612309565b9050919050565b600061235782611ac3565b915061236283611ac3565b9250828201905067ffffffffffffffff81111561238257612381611f8e565b5b92915050565b60006123a361239e61239984611ac3565b611c62565b611a36565b9050919050565b6123b381612388565b82525050565b60006020820190506123ce60008301846123aa565b92915050565b7f4e6f7420617574686f72697a6564000000000000000000000000000000000000600082015250565b600061240a600e83611d4b565b9150612415826123d4565b602082019050919050565b60006020820190508181036000830152612439816123fd565b9050919050565b7f5461736b20616c726561647920636f6d706c6574656400000000000000000000600082015250565b6000612476601683611d4b565b915061248182612440565b602082019050919050565b600060208201905081810360008301526124a581612469565b9050919050565b7f526566756e64206661696c656400000000000000000000000000000000000000600082015250565b60006124e2600d83611d4b565b91506124ed826124ac565b602082019050919050565b60006020820190508181036000830152612511816124d5565b9050919050565b7f4167656e74206973206e6f742061637469766500000000000000000000000000600082015250565b600061254e601383611d4b565b915061255982612518565b602082019050919050565b6000602082019050818103600083015261257d81612541565b9050919050565b7f416d6f756e74206d7573742062652067726561746572207468616e207a65726f600082015250565b60006125ba602083611d4b565b91506125c582612584565b602082019050919050565b600060208201905081810360008301526125e9816125ad565b9050919050565b60006125fb82611a36565b91507fffffffffffffffffffffffffffffffffffffffffffffffffffffffffffffffff820361262d5761262c611f8e565b5b600182019050919050565b7f5061796d656e74206661696c6564000000000000000000000000000000000000600082015250565b600061266e600e83611d4b565b915061267982612638565b602082019050919050565b6000602082019050818103600083015261269d81612661565b905091905056fea264697066735822122075b03c7ef51af734c3fdafe0504297500d75c438c9f6a7f2b37e1505d765318964736f6c634300081c0033",
  "linkReferences": {},
  "deployedLinkReferences": {}
}