{
    "_format": "hh-sol-artifact-1",
    "contractName": "NetworkState",
    "sourceName": "contracts/NetworkState.sol",
    "abi": [
        {
            "inputs": [
                {
                    "internalType": "address",
                    "name": "_tokenAddress",
                    "type": "address"
                }
            ],
            "stateMutability": "nonpayable",
            "type": "constructor"
        },
        {
            "inputs": [],
            "name": "ReentrancyGuardReentrantCall",
            "type": "error"
        },
        {
            "anonymous": false,
            "inputs": [
                {
                    "indexed": true,
                    "internalType": "address",
                    "name": "agent",
                    "type": "address"
                },
                {
                    "indexed": false,
                    "internalType": "uint256",
                    "name": "amount",
                    "type": "uint256"
                }
            ],
            "name": "Staked",
            "type": "event"
        },
        {
            "anonymous": false,
            "inputs": [
                {
                    "indexed": true,
                    "internalType": "uint256",
                    "name": "requestId",
                    "type": "uint256"
                },
                {
                    "indexed": true,
                    "internalType": "address",
                    "name": "agent",
                    "type": "address"
                }
            ],
            "name": "TaskAccepted",
            "type": "event"
        },
        {
            "anonymous": false,
            "inputs": [
                {
                    "indexed": true,
                    "internalType": "uint256",
                    "name": "requestId",
                    "type": "uint256"
                },
                {
                    "indexed": true,
                    "internalType": "address",
                    "name": "agent",
                    "type": "address"
                }
            ],
            "name": "TaskRejected",
            "type": "event"
        },
        {
            "anonymous": false,
            "inputs": [
                {
                    "indexed": true,
                    "internalType": "uint256",
                    "name": "requestId",
                    "type": "uint256"
                },
                {
                    "indexed": true,
                    "internalType": "address",
                    "name": "user",
                    "type": "address"
                },
                {
                    "indexed": true,
                    "internalType": "address",
                    "name": "agent",
                    "type": "address"
                },
                {
                    "indexed": false,
                    "internalType": "uint256",
                    "name": "amount",
                    "type": "uint256"
                }
            ],
            "name": "TaskRequested",
            "type": "event"
        },
        {
            "anonymous": false,
            "inputs": [
                {
                    "indexed": true,
                    "internalType": "uint256",
                    "name": "requestId",
                    "type": "uint256"
                },
                {
                    "indexed": true,
                    "internalType": "address",
                    "name": "user",
                    "type": "address"
                },
                {
                    "indexed": false,
                    "internalType": "uint256",
                    "name": "feedbackScore",
                    "type": "uint256"
                }
            ],
            "name": "TaskReviewed",
            "type": "event"
        },
        {
            "anonymous": false,
            "inputs": [
                {
                    "indexed": true,
                    "internalType": "address",
                    "name": "agent",
                    "type": "address"
                },
                {
                    "indexed": false,
                    "internalType": "uint256",
                    "name": "amount",
                    "type": "uint256"
                }
            ],
            "name": "Unstaked",
            "type": "event"
        },
        {
            "anonymous": false,
            "inputs": [
                {
                    "indexed": true,
                    "internalType": "address",
                    "name": "user",
                    "type": "address"
                }
            ],
            "name": "UserCreated",
            "type": "event"
        },
        {
            "inputs": [],
            "name": "STAKE_AMOUNT",
            "outputs": [
                {
                    "internalType": "uint256",
                    "name": "",
                    "type": "uint256"
                }
            ],
            "stateMutability": "view",
            "type": "function"
        },
        {
            "inputs": [
                {
                    "internalType": "uint256",
                    "name": "_id",
                    "type": "uint256"
                }
            ],
            "name": "acceptTask",
            "outputs": [],
            "stateMutability": "nonpayable",
            "type": "function"
        },
        {
            "inputs": [
                {
                    "internalType": "address",
                    "name": "",
                    "type": "address"
                }
            ],
            "name": "agents",
            "outputs": [
                {
                    "internalType": "uint64",
                    "name": "socialReputation",
                    "type": "uint64"
                },
                {
                    "internalType": "uint64",
                    "name": "feedbackQuality",
                    "type": "uint64"
                },
                {
                    "internalType": "uint64",
                    "name": "tasksCompleted",
                    "type": "uint64"
                },
                {
                    "internalType": "uint64",
                    "name": "feedbacksCompleted",
                    "type": "uint64"
                },
                {
                    "internalType": "uint256",
                    "name": "totalSpent",
                    "type": "uint256"
                },
                {
                    "internalType": "uint256",
                    "name": "totalEarned",
                    "type": "uint256"
                },
                {
                    "internalType": "bool",
                    "name": "isActive",
                    "type": "bool"
                }
            ],
            "stateMutability": "view",
            "type": "function"
        },
        {
            "inputs": [],
            "name": "createUser",
            "outputs": [],
            "stateMutability": "nonpayable",
            "type": "function"
        },
        {
            "inputs": [
                {
                    "internalType": "address",
                    "name": "_agent",
                    "type": "address"
                },
                {
                    "internalType": "uint256",
                    "name": "_tipAmount",
                    "type": "uint256"
                }
            ],
            "name": "payAgent",
            "outputs": [],
            "stateMutability": "nonpayable",
            "type": "function"
        },
        {
            "inputs": [
                {
                    "internalType": "uint256",
                    "name": "_id",
                    "type": "uint256"
                }
            ],
            "name": "rejectTask",
            "outputs": [],
            "stateMutability": "nonpayable",
            "type": "function"
        },
        {
            "inputs": [],
            "name": "requestCounter",
            "outputs": [
                {
                    "internalType": "uint256",
                    "name": "",
                    "type": "uint256"
                }
            ],
            "stateMutability": "view",
            "type": "function"
        },
        {
            "inputs": [
                {
                    "internalType": "uint256",
                    "name": "",
                    "type": "uint256"
                }
            ],
            "name": "requests",
            "outputs": [
                {
                    "internalType": "uint256",
                    "name": "id",
                    "type": "uint256"
                },
                {
                    "internalType": "uint256",
                    "name": "tipAmount",
                    "type": "uint256"
                },
                {
                    "internalType": "uint64",
                    "name": "feedback",
                    "type": "uint64"
                },
                {
                    "internalType": "address",
                    "name": "user",
                    "type": "address"
                },
                {
                    "internalType": "address",
                    "name": "agent",
                    "type": "address"
                },
                {
                    "internalType": "bool",
                    "name": "rejected",
                    "type": "bool"
                },
                {
                    "internalType": "bool",
                    "name": "completed",
                    "type": "bool"
                }
            ],
            "stateMutability": "view",
            "type": "function"
        },
        {
            "inputs": [
                {
                    "internalType": "uint256",
                    "name": "_id",
                    "type": "uint256"
                },
                {
                    "internalType": "uint256",
                    "name": "_feedbackScore",
                    "type": "uint256"
                }
            ],
            "name": "reviewTask",
            "outputs": [],
            "stateMutability": "nonpayable",
            "type": "function"
        },
        {
            "inputs": [],
            "name": "stake",
            "outputs": [],
            "stateMutability": "nonpayable",
            "type": "function"
        },
        {
            "inputs": [
                {
                    "internalType": "address",
                    "name": "",
                    "type": "address"
                }
            ],
            "name": "stakes",
            "outputs": [
                {
                    "internalType": "uint256",
                    "name": "",
                    "type": "uint256"
                }
            ],
            "stateMutability": "view",
            "type": "function"
        },
        {
            "inputs": [],
            "name": "token",
            "outputs": [
                {
                    "internalType": "contract IERC20",
                    "name": "",
                    "type": "address"
                }
            ],
            "stateMutability": "view",
            "type": "function"
        },
        {
            "inputs": [],
            "name": "unstake",
            "outputs": [],
            "stateMutability": "nonpayable",
            "type": "function"
        },
        {
            "inputs": [
                {
                    "internalType": "address",
                    "name": "",
                    "type": "address"
                }
            ],
            "name": "users",
            "outputs": [
                {
                    "internalType": "uint64",
                    "name": "feedbackQuality",
                    "type": "uint64"
                },
                {
                    "internalType": "uint64",
                    "name": "feedbacksCompleted",
                    "type": "uint64"
                },
                {
                    "internalType": "uint256",
                    "name": "totalSpent",
                    "type": "uint256"
                }
            ],
            "stateMutability": "view",
            "type": "function"
        }
    ],
    "bytecode": "0x60a060405234801561001057600080fd5b50604051612d6b380380612d6b833981810160405281019061003291906100d7565b60016000819055508073ffffffffffffffffffffffffffffffffffffffff1660808173ffffffffffffffffffffffffffffffffffffffff168152505050610104565b600080fd5b600073ffffffffffffffffffffffffffffffffffffffff82169050919050565b60006100a482610079565b9050919050565b6100b481610099565b81146100bf57600080fd5b50565b6000815190506100d1816100ab565b92915050565b6000602082840312156100ed576100ec610074565b5b60006100fb848285016100c2565b91505092915050565b608051612c296101426000396000818161046c015281816109ce01528181610d22015281816111ae015281816116d60152611d900152612c296000f3fe608060405234801561001057600080fd5b50600436106100ea5760003560e01c8063973a814e1161008c578063f7e5c81e11610066578063f7e5c81e14610217578063faf5625f14610233578063fc0c546a14610251578063fd66091e1461026f576100ea565b8063973a814e146101ab578063a87430ba146101c9578063e76b9b3f146101fb576100ea565b80632def6620116100c85780632def6620146101455780633a4b66f11461014f5780637d81b40b1461015957806381d12c5814610175576100ea565b806316934fc4146100ef5780631bf6912d1461011f57806325ad91ce1461013b575b600080fd5b61010960048036038101906101049190611f04565b6102a5565b6040516101169190611f4a565b60405180910390f35b61013960048036038101906101349190611f91565b6102bd565b005b610143610723565b005b61014d610935565b005b610157610c2a565b005b610173600480360381019061016e9190611f91565b61104f565b005b61018f600480360381019061018a9190611f91565b611342565b6040516101a2979695949392919061200b565b60405180910390f35b6101b36113f2565b6040516101c09190611f4a565b60405180910390f35b6101e360048036038101906101de9190611f04565b6113f8565b6040516101f29392919061207a565b60405180910390f35b610215600480360381019061021091906120b1565b61144a565b005b610231600480360381019061022c91906120f1565b611826565b005b61023b611d80565b6040516102489190611f4a565b60405180910390f35b610259611d8e565b6040516102669190612190565b60405180910390f35b61028960048036038101906102849190611f04565b611db2565b60405161029c97969594939291906121ab565b60405180910390f35b60056020528060005260406000206000915090505481565b600260003373ffffffffffffffffffffffffffffffffffffffff1673ffffffffffffffffffffffffffffffffffffffff16815260200190815260200160002060030160009054906101000a900460ff1661034c576040517f08c379a000000000000000000000000000000000000000000000000000000000815260040161034390612277565b60405180910390fd5b610354611e51565b60006004600083815260200190815260200160002090503373ffffffffffffffffffffffffffffffffffffffff168160030160009054906101000a900473ffffffffffffffffffffffffffffffffffffffff1673ffffffffffffffffffffffffffffffffffffffff16146103fd576040517f08c379a00000000000000000000000000000000000000000000000000000000081526004016103f4906122e3565b60405180910390fd5b8060030160149054906101000a900460ff1615801561042b57508060030160159054906101000a900460ff16155b61046a576040517f08c379a00000000000000000000000000000000000000000000000000000000081526004016104619061234f565b60405180910390fd5b7f000000000000000000000000000000000000000000000000000000000000000073ffffffffffffffffffffffffffffffffffffffff1663a9059cbb3383600101546040518363ffffffff1660e01b81526004016104c992919061236f565b6020604051808303816000875af11580156104e8573d6000803e3d6000fd5b505050506040513d601f19601f8201168201806040525081019061050c91906123c4565b61054b576040517f08c379a00000000000000000000000000000000000000000000000000000000081526004016105429061243d565b60405180910390fd5b8060010154600260003373ffffffffffffffffffffffffffffffffffffffff1673ffffffffffffffffffffffffffffffffffffffff16815260200190815260200160002060020160008282546105a1919061248c565b92505081905550600260003373ffffffffffffffffffffffffffffffffffffffff1673ffffffffffffffffffffffffffffffffffffffff168152602001908152602001600020600001601081819054906101000a900467ffffffffffffffff168092919061060e906124c0565b91906101000a81548167ffffffffffffffff021916908367ffffffffffffffff160217905550508060010154600360008360020160089054906101000a900473ffffffffffffffffffffffffffffffffffffffff1673ffffffffffffffffffffffffffffffffffffffff1673ffffffffffffffffffffffffffffffffffffffff16815260200190815260200160002060010160008282546106af919061248c565b9250508190555060018160030160156101000a81548160ff0219169083151502179055503373ffffffffffffffffffffffffffffffffffffffff16827fc8717b61398fb9d7cacf49fe1e296b2f10e9711226b532842b6ffd642cb6a2c660405160405180910390a350610720611e97565b50565b6000600360003373ffffffffffffffffffffffffffffffffffffffff1673ffffffffffffffffffffffffffffffffffffffff16815260200190815260200160002060000160089054906101000a900467ffffffffffffffff1667ffffffffffffffff161480156107d557506000600360003373ffffffffffffffffffffffffffffffffffffffff1673ffffffffffffffffffffffffffffffffffffffff16815260200190815260200160002060010154145b610814576040517f08c379a000000000000000000000000000000000000000000000000000000000815260040161080b9061253c565b60405180910390fd5b6040518060600160405280600067ffffffffffffffff168152602001600067ffffffffffffffff1681526020016000815250600360003373ffffffffffffffffffffffffffffffffffffffff1673ffffffffffffffffffffffffffffffffffffffff16815260200190815260200160002060008201518160000160006101000a81548167ffffffffffffffff021916908367ffffffffffffffff16021790555060208201518160000160086101000a81548167ffffffffffffffff021916908367ffffffffffffffff160217905550604082015181600101559050503373ffffffffffffffffffffffffffffffffffffffff167f0b0376a109cbb578b709f85f6a7befcdac3ac1ab251c99ede87f30c9572ac4d360405160405180910390a2565b61093d611e51565b600260003373ffffffffffffffffffffffffffffffffffffffff1673ffffffffffffffffffffffffffffffffffffffff16815260200190815260200160002060030160009054906101000a900460ff166109cc576040517f08c379a00000000000000000000000000000000000000000000000000000000081526004016109c390612277565b60405180910390fd5b7f000000000000000000000000000000000000000000000000000000000000000073ffffffffffffffffffffffffffffffffffffffff1663a9059cbb3369021e19e0c9bab24000006040518363ffffffff1660e01b8152600401610a3192919061236f565b6020604051808303816000875af1158015610a50573d6000803e3d6000fd5b505050506040513d601f19601f82011682018060405250810190610a7491906123c4565b610ab3576040517f08c379a0000000000000000000000000000000000000000000000000000000008152600401610aaa906125a8565b60405180910390fd5b600260003373ffffffffffffffffffffffffffffffffffffffff1673ffffffffffffffffffffffffffffffffffffffff168152602001908152602001600020600080820160006101000a81549067ffffffffffffffff02191690556000820160086101000a81549067ffffffffffffffff02191690556000820160106101000a81549067ffffffffffffffff02191690556000820160186101000a81549067ffffffffffffffff0219169055600182016000905560028201600090556003820160006101000a81549060ff02191690555050600560003373ffffffffffffffffffffffffffffffffffffffff1673ffffffffffffffffffffffffffffffffffffffff168152602001908152602001600020600090553373ffffffffffffffffffffffffffffffffffffffff167f0f5bb82176feb1b5e747e28471aa92156a04d9f3ab9f45f28e2d704232b93f7569021e19e0c9bab2400000604051610c189190611f4a565b60405180910390a2610c28611e97565b565b610c32611e51565b6000600560003373ffffffffffffffffffffffffffffffffffffffff1673ffffffffffffffffffffffffffffffffffffffff16815260200190815260200160002054148015610ce157506000600260003373ffffffffffffffffffffffffffffffffffffffff1673ffffffffffffffffffffffffffffffffffffffff16815260200190815260200160002060000160109054906101000a900467ffffffffffffffff1667ffffffffffffffff16145b610d20576040517f08c379a0000000000000000000000000000000000000000000000000000000008152600401610d1790612614565b60405180910390fd5b7f000000000000000000000000000000000000000000000000000000000000000073ffffffffffffffffffffffffffffffffffffffff166323b872dd333069021e19e0c9bab24000006040518463ffffffff1660e01b8152600401610d8793929190612634565b6020604051808303816000875af1158015610da6573d6000803e3d6000fd5b505050506040513d601f19601f82011682018060405250810190610dca91906123c4565b610e09576040517f08c379a0000000000000000000000000000000000000000000000000000000008152600401610e00906126b7565b60405180910390fd5b6040518060e00160405280600067ffffffffffffffff168152602001600067ffffffffffffffff168152602001600067ffffffffffffffff168152602001600067ffffffffffffffff168152602001600081526020016000815260200160011515815250600260003373ffffffffffffffffffffffffffffffffffffffff1673ffffffffffffffffffffffffffffffffffffffff16815260200190815260200160002060008201518160000160006101000a81548167ffffffffffffffff021916908367ffffffffffffffff16021790555060208201518160000160086101000a81548167ffffffffffffffff021916908367ffffffffffffffff16021790555060408201518160000160106101000a81548167ffffffffffffffff021916908367ffffffffffffffff16021790555060608201518160000160186101000a81548167ffffffffffffffff021916908367ffffffffffffffff1602179055506080820151816001015560a0820151816002015560c08201518160030160006101000a81548160ff02191690831515021790555090505069021e19e0c9bab2400000600560003373ffffffffffffffffffffffffffffffffffffffff1673ffffffffffffffffffffffffffffffffffffffff168152602001908152602001600020819055503373ffffffffffffffffffffffffffffffffffffffff167f9e71bc8eea02a63969f509818f2dafb9254532904319f9dbda79b67bd34a5f3d69021e19e0c9bab240000060405161103d9190611f4a565b60405180910390a261104d611e97565b565b611057611e51565b60006004600083815260200190815260200160002090503373ffffffffffffffffffffffffffffffffffffffff168160030160009054906101000a900473ffffffffffffffffffffffffffffffffffffffff1673ffffffffffffffffffffffffffffffffffffffff16148061111b57503373ffffffffffffffffffffffffffffffffffffffff168160020160089054906101000a900473ffffffffffffffffffffffffffffffffffffffff1673ffffffffffffffffffffffffffffffffffffffff16145b61115a576040517f08c379a000000000000000000000000000000000000000000000000000000000815260040161115190612723565b60405180910390fd5b8060030160159054906101000a900460ff16156111ac576040517f08c379a00000000000000000000000000000000000000000000000000000000081526004016111a39061278f565b60405180910390fd5b7f000000000000000000000000000000000000000000000000000000000000000073ffffffffffffffffffffffffffffffffffffffff1663a9059cbb8260020160089054906101000a900473ffffffffffffffffffffffffffffffffffffffff1683600101546040518363ffffffff1660e01b815260040161122f92919061236f565b6020604051808303816000875af115801561124e573d6000803e3d6000fd5b505050506040513d601f19601f8201168201806040525081019061127291906123c4565b6112b1576040517f08c379a00000000000000000000000000000000000000000000000000000000081526004016112a8906127fb565b60405180910390fd5b60018160030160146101000a81548160ff0219169083151502179055508060030160009054906101000a900473ffffffffffffffffffffffffffffffffffffffff1673ffffffffffffffffffffffffffffffffffffffff16827fae1c93c6393c5abab2eaef81c691beeb381335c7913caabf8feaa0b24bd03cc060405160405180910390a35061133f611e97565b50565b60046020528060005260406000206000915090508060000154908060010154908060020160009054906101000a900467ffffffffffffffff16908060020160089054906101000a900473ffffffffffffffffffffffffffffffffffffffff16908060030160009054906101000a900473ffffffffffffffffffffffffffffffffffffffff16908060030160149054906101000a900460ff16908060030160159054906101000a900460ff16905087565b60015481565b60036020528060005260406000206000915090508060000160009054906101000a900467ffffffffffffffff16908060000160089054906101000a900467ffffffffffffffff16908060010154905083565b611452611e51565b600260008373ffffffffffffffffffffffffffffffffffffffff1673ffffffffffffffffffffffffffffffffffffffff16815260200190815260200160002060030160009054906101000a900460ff166114e1576040517f08c379a00000000000000000000000000000000000000000000000000000000081526004016114d890612867565b60405180910390fd5b60008111611524576040517f08c379a000000000000000000000000000000000000000000000000000000000815260040161151b906128d3565b60405180910390fd5b6000600160008154611535906128f3565b91905081905590506040518060e00160405280828152602001838152602001600067ffffffffffffffff1681526020013373ffffffffffffffffffffffffffffffffffffffff1681526020018473ffffffffffffffffffffffffffffffffffffffff1681526020016000151581526020016000151581525060046000838152602001908152602001600020600082015181600001556020820151816001015560408201518160020160006101000a81548167ffffffffffffffff021916908367ffffffffffffffff16021790555060608201518160020160086101000a81548173ffffffffffffffffffffffffffffffffffffffff021916908373ffffffffffffffffffffffffffffffffffffffff16021790555060808201518160030160006101000a81548173ffffffffffffffffffffffffffffffffffffffff021916908373ffffffffffffffffffffffffffffffffffffffff16021790555060a08201518160030160146101000a81548160ff02191690831515021790555060c08201518160030160156101000a81548160ff0219169083151502179055509050507f000000000000000000000000000000000000000000000000000000000000000073ffffffffffffffffffffffffffffffffffffffff166323b872dd3330856040518463ffffffff1660e01b815260040161173193929190612634565b6020604051808303816000875af1158015611750573d6000803e3d6000fd5b505050506040513d601f19601f8201168201806040525081019061177491906123c4565b6117b3576040517f08c379a00000000000000000000000000000000000000000000000000000000081526004016117aa90612987565b60405180910390fd5b8273ffffffffffffffffffffffffffffffffffffffff163373ffffffffffffffffffffffffffffffffffffffff16827f6e5c922dc601d2627876c223ed8f3ba120b626602276ab6858ab32b9b91c0966856040516118119190611f4a565b60405180910390a450611822611e97565b5050565b813373ffffffffffffffffffffffffffffffffffffffff166004600083815260200190815260200160002060020160089054906101000a900473ffffffffffffffffffffffffffffffffffffffff1673ffffffffffffffffffffffffffffffffffffffff16146118cb576040517f08c379a00000000000000000000000000000000000000000000000000000000081526004016118c2906129f3565b60405180910390fd5b6118d3611e51565b60006004600085815260200190815260200160002090508060030160159054906101000a900460ff1661193b576040517f08c379a000000000000000000000000000000000000000000000000000000000815260040161193290612a5f565b60405180910390fd5b60008160020160009054906101000a900467ffffffffffffffff1667ffffffffffffffff16146119a0576040517f08c379a000000000000000000000000000000000000000000000000000000000815260040161199790612acb565b60405180910390fd5b600083101580156119b25750600a8311155b6119f1576040517f08c379a00000000000000000000000000000000000000000000000000000000081526004016119e890612b37565b60405180910390fd5b600260008260030160009054906101000a900473ffffffffffffffffffffffffffffffffffffffff1673ffffffffffffffffffffffffffffffffffffffff1673ffffffffffffffffffffffffffffffffffffffff168152602001908152602001600020600001601881819054906101000a900467ffffffffffffffff1680929190611a7b906124c0565b91906101000a81548167ffffffffffffffff021916908367ffffffffffffffff16021790555050600283600260008460030160009054906101000a900473ffffffffffffffffffffffffffffffffffffffff1673ffffffffffffffffffffffffffffffffffffffff1673ffffffffffffffffffffffffffffffffffffffff16815260200190815260200160002060000160089054906101000a900467ffffffffffffffff16611b2a9190612b57565b611b349190612bc2565b600260008360030160009054906101000a900473ffffffffffffffffffffffffffffffffffffffff1673ffffffffffffffffffffffffffffffffffffffff1673ffffffffffffffffffffffffffffffffffffffff16815260200190815260200160002060000160086101000a81548167ffffffffffffffff021916908367ffffffffffffffff160217905550600360003373ffffffffffffffffffffffffffffffffffffffff1673ffffffffffffffffffffffffffffffffffffffff168152602001908152602001600020600001600881819054906101000a900467ffffffffffffffff1680929190611c26906124c0565b91906101000a81548167ffffffffffffffff021916908367ffffffffffffffff16021790555050600283600360003373ffffffffffffffffffffffffffffffffffffffff1673ffffffffffffffffffffffffffffffffffffffff16815260200190815260200160002060000160009054906101000a900467ffffffffffffffff16611cb19190612b57565b611cbb9190612bc2565b600360003373ffffffffffffffffffffffffffffffffffffffff1673ffffffffffffffffffffffffffffffffffffffff16815260200190815260200160002060000160006101000a81548167ffffffffffffffff021916908367ffffffffffffffff1602179055503373ffffffffffffffffffffffffffffffffffffffff16847f4c3ed193d646b6745cb226f4d24a3d53ede9d93a594fb7c93dec8437fda76a6b85604051611d6a9190611f4a565b60405180910390a350611d7b611e97565b505050565b69021e19e0c9bab240000081565b7f000000000000000000000000000000000000000000000000000000000000000081565b60026020528060005260406000206000915090508060000160009054906101000a900467ffffffffffffffff16908060000160089054906101000a900467ffffffffffffffff16908060000160109054906101000a900467ffffffffffffffff16908060000160189054906101000a900467ffffffffffffffff16908060010154908060020154908060030160009054906101000a900460ff16905087565b600260005403611e8d576040517f3ee5aeb500000000000000000000000000000000000000000000000000000000815260040160405180910390fd5b6002600081905550565b6001600081905550565b600080fd5b600073ffffffffffffffffffffffffffffffffffffffff82169050919050565b6000611ed182611ea6565b9050919050565b611ee181611ec6565b8114611eec57600080fd5b50565b600081359050611efe81611ed8565b92915050565b600060208284031215611f1a57611f19611ea1565b5b6000611f2884828501611eef565b91505092915050565b6000819050919050565b611f4481611f31565b82525050565b6000602082019050611f5f6000830184611f3b565b92915050565b611f6e81611f31565b8114611f7957600080fd5b50565b600081359050611f8b81611f65565b92915050565b600060208284031215611fa757611fa6611ea1565b5b6000611fb584828501611f7c565b91505092915050565b600067ffffffffffffffff82169050919050565b611fdb81611fbe565b82525050565b611fea81611ec6565b82525050565b60008115159050919050565b61200581611ff0565b82525050565b600060e082019050612020600083018a611f3b565b61202d6020830189611f3b565b61203a6040830188611fd2565b6120476060830187611fe1565b6120546080830186611fe1565b61206160a0830185611ffc565b61206e60c0830184611ffc565b98975050505050505050565b600060608201905061208f6000830186611fd2565b61209c6020830185611fd2565b6120a96040830184611f3b565b949350505050565b600080604083850312156120c8576120c7611ea1565b5b60006120d685828601611eef565b92505060206120e785828601611f7c565b9150509250929050565b6000806040838503121561210857612107611ea1565b5b600061211685828601611f7c565b925050602061212785828601611f7c565b9150509250929050565b6000819050919050565b600061215661215161214c84611ea6565b612131565b611ea6565b9050919050565b60006121688261213b565b9050919050565b600061217a8261215d565b9050919050565b61218a8161216f565b82525050565b60006020820190506121a56000830184612181565b92915050565b600060e0820190506121c0600083018a611fd2565b6121cd6020830189611fd2565b6121da6040830188611fd2565b6121e76060830187611fd2565b6121f46080830186611f3b565b61220160a0830185611f3b565b61220e60c0830184611ffc565b98975050505050505050565b600082825260208201905092915050565b7f4e6f7420616e20616374697665206167656e7400000000000000000000000000600082015250565b600061226160138361221a565b915061226c8261222b565b602082019050919050565b6000602082019050818103600083015261229081612254565b9050919050565b7f4e6f7420796f7572207461736b00000000000000000000000000000000000000600082015250565b60006122cd600d8361221a565b91506122d882612297565b602082019050919050565b600060208201905081810360008301526122fc816122c0565b9050919050565b7f5461736b20616c72656164792068616e646c6564000000000000000000000000600082015250565b600061233960148361221a565b915061234482612303565b602082019050919050565b600060208201905081810360008301526123688161232c565b9050919050565b60006040820190506123846000830185611fe1565b6123916020830184611f3b565b9392505050565b6123a181611ff0565b81146123ac57600080fd5b50565b6000815190506123be81612398565b92915050565b6000602082840312156123da576123d9611ea1565b5b60006123e8848285016123af565b91505092915050565b7f5472616e73666572206661696c65640000000000000000000000000000000000600082015250565b6000612427600f8361221a565b9150612432826123f1565b602082019050919050565b600060208201905081810360008301526124568161241a565b9050919050565b7f4e487b7100000000000000000000000000000000000000000000000000000000600052601160045260246000fd5b600061249782611f31565b91506124a283611f31565b92508282019050808211156124ba576124b961245d565b5b92915050565b60006124cb82611fbe565b915067ffffffffffffffff82036124e5576124e461245d565b5b600182019050919050565b7f5573657220616c72656164792065786973747300000000000000000000000000600082015250565b600061252660138361221a565b9150612531826124f0565b602082019050919050565b6000602082019050818103600083015261255581612519565b9050919050565b7f556e7374616b65206661696c6564000000000000000000000000000000000000600082015250565b6000612592600e8361221a565b915061259d8261255c565b602082019050919050565b600060208201905081810360008301526125c181612585565b9050919050565b7f4167656e7420616c726561647920657869737473000000000000000000000000600082015250565b60006125fe60148361221a565b9150612609826125c8565b602082019050919050565b6000602082019050818103600083015261262d816125f1565b9050919050565b60006060820190506126496000830186611fe1565b6126566020830185611fe1565b6126636040830184611f3b565b949350505050565b7f5374616b65206661696c65640000000000000000000000000000000000000000600082015250565b60006126a1600c8361221a565b91506126ac8261266b565b602082019050919050565b600060208201905081810360008301526126d081612694565b9050919050565b7f4e6f7420617574686f72697a6564000000000000000000000000000000000000600082015250565b600061270d600e8361221a565b9150612718826126d7565b602082019050919050565b6000602082019050818103600083015261273c81612700565b9050919050565b7f5461736b20616c726561647920636f6d706c6574656400000000000000000000600082015250565b600061277960168361221a565b915061278482612743565b602082019050919050565b600060208201905081810360008301526127a88161276c565b9050919050565b7f526566756e64206661696c656400000000000000000000000000000000000000600082015250565b60006127e5600d8361221a565b91506127f0826127af565b602082019050919050565b60006020820190508181036000830152612814816127d8565b9050919050565b7f4167656e74206973206e6f742061637469766500000000000000000000000000600082015250565b600061285160138361221a565b915061285c8261281b565b602082019050919050565b6000602082019050818103600083015261288081612844565b9050919050565b7f416d6f756e74206d7573742062652067726561746572207468616e207a65726f600082015250565b60006128bd60208361221a565b91506128c882612887565b602082019050919050565b600060208201905081810360008301526128ec816128b0565b9050919050565b60006128fe82611f31565b91507fffffffffffffffffffffffffffffffffffffffffffffffffffffffffffffffff82036129305761292f61245d565b5b600182019050919050565b7f5061796d656e74206661696c6564000000000000000000000000000000000000600082015250565b6000612971600e8361221a565b915061297c8261293b565b602082019050919050565b600060208201905081810360008301526129a081612964565b9050919050565b7f4e6f742072657175657374206f776e6572000000000000000000000000000000600082015250565b60006129dd60118361221a565b91506129e8826129a7565b602082019050919050565b60006020820190508181036000830152612a0c816129d0565b9050919050565b7f5461736b206e6f7420636f6d706c657465640000000000000000000000000000600082015250565b6000612a4960128361221a565b9150612a5482612a13565b602082019050919050565b60006020820190508181036000830152612a7881612a3c565b9050919050565b7f5461736b20616c72656164792072657669657765640000000000000000000000600082015250565b6000612ab560158361221a565b9150612ac082612a7f565b602082019050919050565b60006020820190508181036000830152612ae481612aa8565b9050919050565b7f496e76616c696420666565646261636b2073636f726500000000000000000000600082015250565b6000612b2160168361221a565b9150612b2c82612aeb565b602082019050919050565b60006020820190508181036000830152612b5081612b14565b9050919050565b6000612b6282611fbe565b9150612b6d83611fbe565b9250828201905067ffffffffffffffff811115612b8d57612b8c61245d565b5b92915050565b7f4e487b7100000000000000000000000000000000000000000000000000000000600052601260045260246000fd5b6000612bcd82611fbe565b9150612bd883611fbe565b925082612be857612be7612b93565b5b82820490509291505056fea2646970667358221220949a1569d62a1c535f71019ff405d0860dd72390fa80ac6787ae1c550ada189264736f6c634300081c0033",
    "linkReferences": {},
    "deployedLinkReferences": {}
}